:020000040800F2
:1000000000000120190800086108000861080008C4
:10001000610800086108000861080008000000008D
:10002000000000000000000000000000610800085F
:10003000610800080000000061080008610800086D
:1000400061080008610800086108000861080008EC
:1000500061080008610800086108000861080008DC
:1000600061080008610800086108000861080008CC
:1000700061080008610800086108000861080008BC
:1000800061080008610800086108000861080008AC
:10009000610800086108000861080008610800089C
:1000A000610800086108000861080008610800088C
:1000B000610800086108000861080008610800087C
:1000C000610800086108000861080008610800086C
:1000D000610800086108000861080008610800085C
:1000E000610800086108000861080008610800084C
:1000F000610800086108000861080008610800083C
:10010000610800086108000861080008610800082B
:10011000610800086108000861080008610800081B
:10012000610800086108000861080008610800080B
:1001300000000000000000000000000000000000BF
:1001400000000000000000000000000000000000AF
:10015000000000000000000000000000000000009F
:10016000000000000000000000000000000000008F
:10017000000000000000000000000000000000007F
:10018000000000000000000000000000000000006F
:10019000000000000000000000000000000000005F
:1001A000000000000000000000000000000000004F
:1001B000000000000000000000000000000000003F
:1001C000000000000000000000000000000000002F
:1001D000000000000000000000000000000000001F
:0401E0005FF8E0F1F3
:1001E40010B5054C237833B9044B13B10448AFF36D
:1001F40000800123237010BD2C04002000000000A7
:10020400E401000808B5034B1BB103490348AFF3ED
:10021400008008BD0000000030040020E401000854
:1002240080F0004002E000BF81F0004142001FBFA7
:100234005FEA410392EA030F7FEA226C7FEA236CB0
:100244006AD04FEA1262D2EB1363C1BFD2184140A5
:1002540048404140B8BF5B42192B88BF704710F03B
:10026400004F40F4000020F07F4018BF404211F0DE
:10027400004F41F4000121F07F4118BF494292EA46
:10028400030F3FD0A2F1010241FA03FC10EB0C0072
:10029400C3F1200301FA03F100F0004302D54942FF
:1002A40060EB4000B0F5000F13D3B0F1807F06D3AC
:1002B40040084FEA310102F10102FE2A51D2B1F1A4
:1002C400004F40EBC25008BF20F0010040EA030099
:1002D4007047490040EB0000013A28BFB0F5000F19
:1002E400EDD2B0FA80FCACF1080CB2EB0C0200FACF
:1002F4000CF0AABF00EBC25052421843BCBFD0401E
:100304001843704792F0000F81F4000106BF80F497
:1003140000000132013BB5E74FEA41037FEA226C5A
:1003240018BF7FEA236C21D092EA030F04D092F025
:10033400000F08BF0846704790EA010F1CBF002059
:10034400704712F07F4F04D1400028BF40F00040B6
:10035400704712F100723CBF00F50000704700F0D6
:10036400004343F0FE4040F4000070477FEA2262FD
:1003740016BF08467FEA23630146420206BF5FEACE
:10038400412390EA010F40F4800070474FF00003CE
:1003940004E000BF10F0004348BF40425FEA000C95
:1003A40008BF704743F0964301464FF000001CE03D
:1003B40050EA010208BF70474FF000030AE000BF93
:1003C40050EA010208BF704711F0004302D54042D1
:1003D40061EB41015FEA010C02BF84460146002043
:1003E40043F0B64308BFA3F18053A3F50003BCFA5E
:1003F4008CF2083AA3EBC25310DB01FA02FC63440B
:1004040000FA02FCC2F12002BCF1004F20FA02F211
:1004140043EB020008BF20F00100704702F1200204
:1004240001FA02FCC2F1200250EA4C0021FA02F265
:1004340043EB020008BF20EADC7070474FF0FF0C6A
:100444001CEAD0521EBF1CEAD15392EA0C0F93EA65
:100454000C0F6FD01A4480EA010C400218BF5FEA07
:1004640041211ED04FF0006343EA501043EA51117A
:10047400A0FB01310CF00040B1F5000F3EBF490074
:1004840041EAD3715B0040EA010062F17F02FD2A78
:100494001DD8B3F1004F40EBC25008BF20F001005B
:1004A400704790F0000F0CF0004C08BF49024CEA72
:1004B400502040EA51207F3AC2BFD2F1FF0340EA04
:1004C400C250704740F400004FF00003013A5DDC75
:1004D40012F1190FDCBF00F000407047C2F10002B6
:1004E400410021FA02F1C2F1200200FA02FC5FEAA3
:1004F400310040F1000053EA4C0308BF20EADC70ED
:10050400704792F0000F00F0004C02BF400010F45E
:10051400000F013AF9D040EA0C0093F0000F01F00B
:10052400004C02BF490011F4000F013BF9D041EA2D
:100534000C018FE70CEAD15392EA0C0F18BF93EA2F
:100544000C0F0AD030F0004C18BF31F0004CD8D159
:1005540080EA010000F00040704790F0000F17BFE0
:1005640090F0004F084691F0000F91F0004F14D026
:1005740092EA0C0F01D142020FD193EA0C0F03D17E
:100584004B0218BF084608D180EA010000F0004081
:1005940040F0FE4040F40000704740F0FE4040F45C
:1005A400400070474FF0FF0C1CEAD0521EBF1CEAFB
:1005B400D15392EA0C0F93EA0C0F69D0A2EB030219
:1005C40080EA010C49024FEA402037D04FF08053B3
:1005D40043EA111143EA10130CF000408B4238BF78
:1005E4005B0042F17D024FF4000C8B4224BF5B1A86
:1005F40040EA0C00B3EB510F24BFA3EB510340EAD4
:100604005C00B3EB910F24BFA3EB910340EA9C0081
:10061400B3EBD10F24BFA3EBD10340EADC001B01F1
:1006240018BF5FEA1C1CE0D1FD2A3FF650AF8B4295
:1006340040EBC25008BF20F0010070470CF0004CA2
:100644004CEA50207F32C2BFD2F1FF0340EAC250CD
:10065400704740F400004FF00003013A37E792F08E
:10066400000F00F0004C02BF400010F4000F013AEC
:10067400F9D040EA0C0093F0000F01F0004C02BFE7
:10068400490011F4000F013BF9D041EA0C0195E750
:100694000CEAD15392EA0C0F08D142027FF47DAFE9
:1006A40093EA0C0F7FF470AF084676E793EA0C0FD9
:1006B40004D14B023FF44CAF08466EE730F0004CD7
:1006C40018BF31F0004CCAD130F000427FF45CAF67
:1006D40031F000437FF43CAF5FE700BF4FF0FF3CD5
:1006E40006E000BF4FF0010C02E000BF4FF0010C28
:1006F4004DF804CD4FEA40024FEA41037FEA226CF1
:1007040018BF7FEA236C11D001B052EA530C18BF12
:1007140090EA010F58BFB2EB030088BFC81738BF77
:100724006FEAE17018BF40F0010070477FEA226C65
:1007340002D15FEA402C05D17FEA236CE4D15FEA61
:10074400412CE1D05DF8040B704700BF8446084695
:100754006146FFE70FB5FFF7C9FF002848BF10F156
:10076400000F0FBD4DF808EDFFF7F4FF0CBF01209B
:1007740000205DF808FB00BF4DF808EDFFF7EAFF25
:1007840034BF012000205DF808FB00BF4DF808EDE0
:10079400FFF7E0FF94BF012000205DF808FB00BFD5
:1007A4004DF808EDFFF7D2FF94BF012000205DF85B
:1007B40008FB00BF4DF808EDFFF7C8FF34BF012068
:1007C40000205DF808FB00BF4FEA4002B2F1FE4F83
:1007D4000FD34FF09E03B3EB12620DD94FEA0023FF
:1007E40043F0004310F0004F23FA02F018BF4042D8
:1007F40070474FF00000704712F1610F01D14202BF
:1008040005D110F0004008BF6FF0004070474FF072
:1008140000007047002103E00B4B5B584350043148
:100824000A480B4B42189A42F6D30A4A02E00023C4
:1008340042F8043B084B9A42F9D300F011F800F057
:1008440009FD00F01BFA7047081900080000002099
:100854002C0400202C0400204C040020FEE700009F
:1008640010B400204FF41F04394A3A4B116883B086
:1008740041F00101116051680B405360136823F08B
:10088400847323F480331360136823F48023136088
:10089400536823F4FE03536094600090019013683E
:1008A40043F48033136003E0009BB3F5A06F09D0D9
:1008B400136803F400330193009B01330093019BFD
:1008C400002BF1D0224B1B6813F4003318BF012313
:1008D4000193019B012B06D04FF000621E4B9A60DE
:1008E40003B010BC70471D4A194B116841F0100148
:1008F4001160116821F007011160116841F00201D3
:1009040011605A685A605A685A605A6842F48062A0
:100914005A605A6822F47C125A605A6842F4E81207
:100924005A601A6842F080721A601A689201FCD503
:100934005968074A21F003015960596841F00201DE
:100944005960536803F00C03082BFAD1C4E700BFC5
:10095400001002400000FFF800ED00E0002002401B
:10096400B8B110B44FF0E02205244FF6FF7C411ECD
:10097400084889B2506114611369DB03FCD513691B
:10098400013989B223F0010361451361F2D110BC2E
:100994007047704740190100F8B5054617460C46E4
:1009A4001E462A2000F04CFC280A00F04DFCE8B258
:1009B40000F04AFCE8190138C0F30F2000F044FCB1
:1009C400781E2844C0B200F03FFC2B2000F038FC15
:1009D400200A00F039FCE0B200F036FCA01901381E
:1009E400C0F30F2000F030FC701E2044C0B200F0B1
:1009F4002BFCBDE8F8402C2000F022BC2DE9F04F80
:100A04008DB00591FFF7C6FC8A490490FFF716FDE7
:100A14000446FFF7D9FE03464FF07C5120461CB232
:100A24000394FFF70BFD01468348FFF7FDFBFFF737
:100A3400CBFE002C40F3FA8003B200209BB202905C
:100A440001930BE0019B029A01339BB201320193A3
:100A5400039B10B28342029240F3E880019BB3F5FA
:100A6400F07FEFD2FFF796FC0499FFF79BFD014658
:100A74007248FFF7D9FBDFF8C8A10124D1464FF033
:100A8400000805466F4F704E4BE039462846FFF785
:100A940073FE00284BD06D4BB8F1050F03EB8402B5
:100AA40008F101031BB200932CDC3146284652F8AE
:100AB40004BCFFF7B9FB0246009B314638460CAE36
:100AC400174606EB88069846FFF7AEFB0146384604
:100AD400FFF768FD5E495D4AA1FB04131B0903EBA4
:100AE400C303A4EBC3030746594652F82300FFF798
:100AF4009BFB01463846FFF7A1FC5946FFF796FBDE
:100B040046F8180C0134492C20D0514B59F8046F85
:100B1400A3FB04231B0903EBC303A4EBC3035AF88D
:100B2400237031462846FFF73BFE0028ADD13946F5
:100B34002846FFF735FE0028E4D031462846FFF763
:100B44001BFE0028A7D10134492CDED1B8F1000FD7
:100B54003FF478AF0026013636B2464506AD19D0CB
:100B640005F1040A5746344657F804BBD5F80090FB
:100B740058464946FFF700FE013424B218B1C5F8BF
:100B840000B047F8049CA045EEDC013636B2464579
:100B94005546E5D1B8F1010F7FF754AF0025012781
:100BA40040F23F162B46DDF810A0DDF804B0DDF866
:100BB40014900CAA02EB830353F8181C5046FFF759
:100BC4003DFC2449FFF732FBFFF7FEFD03460CAA68
:100BD40002EB870757F8181C50461FB2FFF72EFC8C
:100BE4001C49FFF723FBFFF7EFFD00B2874216DC39
:100BF400B042A8BF3046044627EAE77080B2013409
:100C0400241AA4B25CB1012322465946FFF7C4FE5C
:100C140000274846013700F017FBBC42F9D10235E2
:100C24002DB26F1C47452B46C3DB0BE70DB0BDE867
:100C3400F08F00BF562BE73F00002A43AC563E3FDF
:100C4400A0140008C7F4A43E0000A03E80130008CE
:100C5400398EE33800002043002138B54FF4A072E8
:100C640005464FF4F07308464FF41634FFF794FE2C
:100C7400284600F0E9FA013CFAD138BD2DE9F04FDD
:100C840085B000F087FA4FF020420027D3694FF473
:100C9400784923F47F4323F00F03D361D36943F4EA
:100CA4007F4343F00F03D36100F0AEFA00F0C0FAC3
:100CB400F72000F0C5FAA92000F0C6FA512000F090
:100CC400C3FA2C2000F0C0FA822000F0BDFAC02044
:100CD40000F0B6FA112000F0B7FA092000F0B4FAD7
:100CE400C12000F0ADFA412000F0AEFA384600F021
:100CF400ABFAC52000F0A4FA384600F0A5FA0A20A1
:100D040000F0A2FA802000F09FFAB12000F098FAD7
:100D1400B02000F099FA112000F096FAB42000F007
:100D24008FFA022000F090FAB62000F089FA02202F
:100D340000F08AFA222000F087FAB72000F080FA47
:100D4400C62000F081FABE2000F07AFA384600F09E
:100D54007BFA042000F078FAE02000F071FA3846BB
:100D640000F072FA072000F06FFA102000F06CFA1D
:100D7400092000F069FA172000F066FA0B2000F051
:100D840063FA412000F060FA892000F05DFA4B20FC
:100D940000F05AFA0A2000F057FA0C2000F054FA36
:100DA4000E2000F051FA182000F04EFA1B2000F03B
:100DB4004BFA0F2000F048FAE12000F041FA3846DF
:100DC40000F042FA172000F03FFA1A2000F03CFA33
:100DD400042000F039FA0E2000F036FA062000F064
:100DE40033FA2F2000F030FA452000F02DFA43208A
:100DF40000F02AFA022000F027FA0A2000F024FA70
:100E0400092000F021FA322000F01EFA362000F00A
:100E14001BFA0F2000F018FA3A2000F011FA5520BE
:100E240000F012FA362000F00BFA082000F00CFA59
:100E3400112000F005FA7820FFF792FD292000F038
:100E4400FFF93220FFF78CFD4846FFF705FF4FF40A
:100E54002F70FFF785FD4FF4FC60FFF7FDFE4FF4A4
:100E64002F70FFF77DFD1F20FFF7F6FE4FF42F7064
:100E7400FFF776FD3846FFF7EFFE019700214FF4A8
:100E8400F0734FF4A07208464FF41634FFF784FD54
:100E9400384600F0D9F9013CFAD10324494626200A
:100EA400FFF7ACFDC820FFF75BFD39462E20FFF7A6
:100EB400A5FD49462120FFF7A1FDC820FFF750FDFD
:100EC400013C39462E20FFF799FD14F0FF04E5D1CB
:100ED40049462620FFF792FD4026DFF8B8812023FB
:100EE4004FF4A57130461A46C24608F17F0BFFF74E
:100EF40053FD082514F0010F14BF48463846013D40
:100F040000F0A2F915F0FF054FEA5404F2D1DA45D6
:100F140002D01AF8014FECE7DC20FFF721FDE02EA8
:100F240004D0203618F8804FB6B2D8E74FF4966054
:100F3400FFF716FD02230293564B03F27F3303930C
:100F44004FF0400828234FF4A0724FF4A3710020FF
:100F5400FFF722FD4FF44855384600F075F9013D7E
:100F6400FAD1C3464C4E20234FF4A57158461A4675
:100F7400A6F17F04FFF710FD4FF0080A15F0010FEA
:100F840014BF484638460AF1FF3A00F05DF91AF0FA
:100F9400FF0A4FEA5505F1D1B4420AD1039B8036CA
:100FA4000BF1200B9E421FFA8BFB05D016F87F5CD9
:100FB400D9E714F8015FDFE708F1040816201FFAE7
:100FC40088F8FFF7CDFCB8F1800FBBD14FF07C0B54
:100FD40028234FF4A0724FF4A3710020FFF7DCFC28
:100FE4004FF44855384600F02FF9013DFAD1D84660
:100FF400294E20234FF4A57140461A46A6F17F04DA
:10100400FFF7CAFC4FF0080A15F0010F14BF484659
:1010140038460AF1FF3A00F017F91AF0FF0A4FEACE
:101024005505F1D1A6420AD1039B803608F1200868
:101034009E421FFA88F805D016F87F5CD9E714F8A9
:10104400015FDFE7ABF1040B16201FFA8BFBFFF700
:1010540087FCBBF13C0FBBD1029B012B02D00123C7
:1010640002936DE74FF41670FFF77AFC019AD046AD
:101074000132D2B2072A05D947464FF47849CDF850
:101084000480FBE6054B904603EB820133F8229083
:101094004F88F4E7E01500085F160008C015000843
:1010A400354A10B41168354B41F0030111601468DE
:1010B400334844F0080414601468324924F00404EA
:1010C40014601C6844F033041C605C68204358605E
:1010D4000C682D4844F040540C604C6844F03334A0
:1010E4004C601C6844F088041C601C6824F04404B0
:1010F4001C605C68204358605C6824482040586049
:101104000C68234844F000440C600C6824F08044CC
:101114000C604C6844F088344C604C6804F0BB3478
:101124004C60196841F44C111960196810BC41F401
:1011340008011960196821F488011960536843F49F
:1011440040335360536843F400235360536823F4DB
:1011540080235360536843F040535360536823F033
:1011640040435360036843F003030360036823F0C0
:101174000C030360704700BF0020014000140140CD
:10118400330300330018014088080088BBFBFFBB11
:10119400000C014008B51B4B5A6942F480725A6135
:1011A4009A6942F4F4729A61FFF77AFF4FF0204390
:1011B4009A6942F001029A619A6922F00C029A61DA
:1011C4009A6922F040029A619A6922F020029A6197
:1011D4009A6942F010029A619A6922F002029A61B5
:1011E4009A6942F480529A61DA6922F00F02DA6154
:1011F400DA6922F47F42DA61DA6942F48E42DA6112
:1012040008BD00BF0010024010B5084C6420E3681C
:1012140023F40043E360FFF7A3FBE368642043F493
:101224000043E360BDE81040FFF79ABB0020014093
:10123400024AD36843F00103D3607047000C0140B5
:101244004FF0D84318807047014B1880704700BF97
:101254000008006C70B50D4E0D4D761BB61006D00F
:10126400002455F8043B01349847A642F9D1094EAD
:10127400094D00F035FB761BB61006D0002455F856
:10128400043B01349847A642F9D170BDFC1800080C
:10129400FC18000804190008FC180008024B13B1DC
:1012A400024800F005B8704700000000C1120008B1
:1012B400002301461A46184600F01AB838B5084B00
:1012C400084D5B1B9C1007D0043B1D44013C55F8A2
:1012D40004399847002CF9D1BDE8384000F006BB2A
:1012E4000819000804190008704700BF704700BFC0
:1012F4002DE9F047DFF87CA00646DAF800009846AE
:101304000F469146FFF7F0FF1B4B1B68D3F848418B
:1013140024B365681F2D26DC5EB96B1C0235DAF830
:101324000000636044F82570FFF7E0FF0020BDE88B
:10133400F087012304EB8501C1F88890D4F8882153
:10134400AB401A43022EC4F88821C1F80881E4D1C5
:10135400D4F88C211343C4F88C31DEE703F5A6746A
:10136400C3F84841D5E7DAF80000FFF7BFFF4FF0B4
:10137400FF30DCE728040020E0180008000000002B
:10138400DA032D3A4EB4AB3B9E0C8E3C87E1233DF1
:1013940042959A3D0000003E933A413E1AFA873E38
:1013A4008104B53ECC28E63E85B60C3FF146263F87
:1013B4009F933E3FCF6B543F5BB6663F1782743FAB
:1013C400DB167D3F0000803FDB167D3F1782743FB4
:1013D4005BB6663FCF6B543F9F933E3FF146263F3B
:1013E40085B60C3FCC28E63E8104B53E1AFA873E0A
:1013F400933A413E0000003E42959A3D87E1233DE9
:101404009E0C8E3C4EB4AB3BDA032D3A0000000038
:10141400DA032DBA4EB4ABBB9E0C8EBC87E123BD60
:1014240042959ABD000000BE933A41BE1AFA87BEA7
:101434008104B5BECC28E6BE85B60CBFF14626BFF6
:101444009F933EBFCF6B54BF5BB666BF178274BF1A
:10145400DB167DBF000080BFDB167DBF178274BF23
:101464005BB666BFCF6B54BF9F933EBFF14626BFAA
:1014740085B60CBFCC28E6BE8104B5BE1AFA87BE79
:10148400933A41BE000000BE42959ABD87E123BD58
:101494009E0C8EBC4EB4ABBBDA032DBA0000A03E4A
:1014A400C7F4A43EB263B33E2601CA3E04CAE63E74
:1014B4008195033F6822143F9B8F233F357B303F48
:1014C40078B4393FAC563E3FE9D43D3F0000383F45
:1014D400DA032D3FAB5B1D3F4DBE093FD313E63E00
:1014E4003F52B43E0000803E535C153E6CCF2C3D11
:1014F4008FE472BD846421BE433981BE0000B0BE56
:101504006A30DDBE317C04BF78B419BFF9312EBF17
:1015140082C541BF682254BFCEDF64BF778473BFE6
:101524003F917FBF6F4784BF280F87BF000088BFEC
:10153400280F87BF6F4784BF3F917FBF778473BFF6
:10154400CEDF64BF682254BF82C541BFF9312EBFCC
:1015540078B419BF317C04BF6A30DDBE0000B0BE70
:10156400433981BE846421BE8FE472BD6CCF2C3DAF
:10157400535C153E0000803E3F52B43ED313E63E1A
:101584004DBE093FAB5B1D3FDA032D3F0000383FE2
:10159400E9D43D3FAC563E3F78B4393F357B303FCC
:1015A4009B8F233F6822143F8195033F04CAE63E84
:1015B4002601CA3EB263B33EC7F4A43E00F800005D
:1015C400E0FF1F00FFFF00F8FF7F0000E0070000BE
:1015D4001F00E0FF1FF800000000E0FF00E0000033
:1015E40000E0000000E0000000E0003C00E0003EFD
:1015F40000E0003EE0FFFF1FE0FFFF0F00E0C00738
:1016040000E0C00300E0E00300E0F00000E0F800C8
:10161400FEFFFFFFFEFFFFFFFEFFFFFF00C007000E
:1016240000E0030300FC8103007EF007003FF8079D
:10163400E0BFFF00F8FF3F00FEFD0F007FFC00004D
:101644003E3C000C003C003C003C003E003C003EA4
:1016540000F8FF1F00F8FF0F0000000000007800F2
:101664000000780070007800F8037800E0F3FF3F92
:1016740080F1FF3F0870783C7C70783CFC70780007
:1016840060F0FF0F40F0FF0F00F8070FC03B8F071B
:10169400E03FDF03F83CFC01783CFC033ECFFF7FD6
:1016A4001C8E8F3F00F0000000F00000FFFFFFFFE2
:1016B400FFFFFFFFFFFFFFFF000F780080FF7C00AC
:1016C40000F81F0000C0FF0000FCFB0FC0FFE03F5C
:1016D400FC1F003EF803001C0000000000001E0078
:1016E40000001E0000609E0100FFDE03E0FFDE0735
:1016F400FC0F9E0FFC0F1E1F380F1E1E000F1E0C2A
:10170400000F1E00FEFFFF7FFEFFFF7FFEFFFF7F37
:10171400000F1E00000F1E0C000F1C3C000F1C3C91
:1017240000FF1C1E80FF3C0FF8FFBC0FFE0FB80724
:10173400FE0FF8030E0FF803000FF801000FFC3042
:10174400000FFE71000FFFF380EFCFF7F0FF87FF6C
:10175400E0E7007FE0C3003E000000000000003826
:101764000000803F0000FF3FF8FFFF7FF8FF7F0687
:10177400F8DF010FC0C3031FC0C7070F808F87079F
:101784000007C707FCFFFFFFFCFFFFFFFCFFFFFF95
:101794003CE000F03CF000F03CF000F0F0FFFF3FD4
:1017A400F0FFFF3F20780038003E0000003E0000BC
:1017B40000FFFF0F80FFFF07C03FC007F0F9F001F3
:1017C400F8F0F900FCE0FB003FC03F001CC0FF0044
:1017D40004FCFFFFE0FFF8FFC03FC07F00010000F2
:1017E40000830300808F0F0080870700C0830700F9
:1017F400E0C30300E0C3FFFFE0E1FFFFF0E0FF7F91
:10180400F0E00178F8F8003CF878783CFC7C783E0D
:10181400FF3C7818FF3E7800EC007800E000780682
:10182400E080790EE0C07B0FE0E07B1EE0E0793ED3
:10183400E0F0783CE0F8787CE07C78F0E07C78F0CC
:10184400E01C7870E0187820E0007800E0007C006C
:10185400E0807F00E0803F00E0811F0000E007009F
:1018640000E0070000E0070000E0070000E00700D8
:1018740000E0070000E0070000E0070000E00700C8
:1018840000E0070000E0070000E0070000E00700B8
:1018940000E0070000E0070000E0070000C00700C8
:1018A40000C0070000C0070000C0070000C0070018
:1018B40000C0030000C0030000C0030000000000DB
:1018C400000000000000000000E0070000E0070046
:1018D40000E0070000E0070000E00700000000202F
:1018E400F8B500BFF8BC08BC9E467047F8B500BF09
:0818F400F8BC08BC9E467047D9
:0818FC00A11200080902000816
:04190400E5010008F1
:1019080000000000EC02002054030020BC0300206B
:1019180000000000000000000000000000000000BF
:1019280000000000000000000000000000000000AF
:10193800000000000000000000000000000000009F
:10194800000000000000000000000000000000008F
:10195800000000000000000000000000000000007F
:10196800000000000000000000000000000000006F
:10197800000000000000000000000000000000005F
:10198800000000000000000000000000000000004F
:10199800000000000000000000000000000000003F
:1019A800000000000000000001000000000000002E
:1019B8000E33CDAB34126DE6ECDE05000B000000F3
:1019C800000000000000000000000000000000000F
:1019D80000000000000000000000000000000000FF
:1019E80000000000000000000000000000000000EF
:1019F80000000000000000000000000000000000DF
:0C1D280000000000000000004804002043
:0400000508000819CE
:00000001FF
